:020000040000FA
:06000000FDEF25F01200E7
:020006001200E6
:0600080044EF06F01200B7
:02000E00C250DE
:08001000040B01E0010E1200D7
:020018001200D4
:06001A0001005C4C000037
:08002000A80000000800000028
:08002800D9CFE6FFE1CFD9FFBB
:100030000A0EE126020EDB6A030EDB6AF28EF28EF6
:100040009280070EE66ECE0EE66EB8EC24F0E55216
:10005000E552C190C182C184C186948C810EE66E46
:10006000E66A3C0EE66E31EC23F0E552E552E552CD
:10007000800E006E440E016E026A00C0E6FFE66E5E
:1000800002C0E6FF0DEC24F0E552E552E552950E74
:10009000E66E92EC25F0E5527D0EE66EDCEC24F087
:1000A000E552929492969298928A94869488949A21
:1000B000E66A030EE66E040EE66EA6EC23F0E55249
:1000C000E552E5529D869F86936A816A9380F28805
:1000D000929C956A95809582838A010EE66EE66A07
:1000E00009EC06F0E552E552839A22EC05F0020E87
:1000F000DB6A030EDB6A020EDBCF00F0030EDBCF00
:1001000001F0D890015004E6070E005C000E015883
:1001100015E2020EDBCFE9FF030EDBCFEAFFD8903A
:10012000E936EA36800EE926000EEA22EE6AED6A2A
:10013000020EDB2A030EDFE3DB2ADDD78094000109
:10014000070EA81901E07AD1A95101E077D1000189
:100150008C2B000E8D23020EDB6A030EDB6A020E6F
:10016000DBCF00F0030EDBCF01F0D890015004E6A6
:10017000800E005C000E01583BE22BEC26F007ECF1
:1001800000F00009FCE119EC26F0F3CF00F0F4CF09
:1001900001F0D10E005E010E015A100E326E336A6C
:1001A00000C02DF001C02EF0A6EC1EF02DC000F016
:1001B0002EC001F0020EDBCFE9FF030EDBCFEAFF1A
:1001C000D890E936EA36000EE926040EEA222DC060
:1001D000EEFF01C0EDFF010EE66EE66A09EC06F0E7
:1001E000E552E552020EDB2A030EB9E3DB2AB7D74C
:1001F000020EDB6A030EDB6A020EDBCF00F0030E99
:10020000DBCF01F0D890015004E6800E005C000EB8
:1002100001583BE22BEC26F007EC00F00009FCE172
:1002200019EC26F0F3CF00F0F4CF01F0D10E005E10
:10023000010E015A100E326E336A00C02DF001C05B
:100240002EF0A6EC1EF02DC000F02EC001F0020E24
:10025000DBCFE9FF030EDBCFEAFFD890E936EA36C1
:10026000000EE926030EEA222DC0EEFF01C0EDFFCD
:10027000010EE66EE66A09EC06F0E552E552020E62
:10028000DB2A030EB9E3DB2AB7D7020EDB6A030EC3
:10029000DB6A020EDBCF00F0030EDBCF01F0D8905B
:1002A000015004E6800E005C000E015824E2020EAC
:1002B000DBCFE9FF030EDBCFEAFFD890E936EA3661
:1002C000000EE926020EEA22EE6AED6A020EDBCF8C
:1002D000E9FF030EDBCFEAFFD890E936EA36000EDD
:1002E000E926010EEA22EE6AED6A020EDB2A030E0F
:1002F000D0E3DB2ACED7000EE66E010EE66E000ECE
:10030000E66E020EE66E000EE66E030EE66E000E60
:10031000E66E040EE66E51EC0FF0006E080EE15E24
:100320000050060EF3CFDBFF070EF4CFDBFF060E07
:10033000DBCF00F0070EDBCF01F0D890015004E6D0
:10034000380E005C000E015801E378D0060EDBCFBA
:100350002DF0070EDBCF2EF03CEC1DF02CC000F092
:100360002DC001F02EC002F02FC003F0316A326AB6
:10037000940E336E410E346EA2EC1DF0F9EC1EF0BB
:100380002DC0DEFF2EC0DDFFDECF00F0DDCF01F09F
:100390000050E66E0001AAC002F0ABC003F0AA2B29
:1003A000000EAB230250E66E4AD9E552E552DECF8D
:1003B00000F0DDCF01F001C000F0016A0050011033
:1003C00002E1000E01D0010EE66E0001AAC002F0AB
:1003D000ABC003F0AA2B000EAB230250E66E2FD960
:1003E000E552E552200E326E336AAAC02DF0ABC042
:1003F0002EF0A6EC1EF029C0AAF02AC0ABF0DECF8A
:10040000E6FFDDCFE6FFE9EC0DF0E552E552EDD970
:100410006F0EE66E440EE66E78DAE552E552FCD9D0
:10042000DECFE6FFDDCFE6FFDCDAE552E5525E0E19
:10043000E66E440EE66E69DAE552E5520001090EF9
:10044000A81901E085D0A95101E082D0010EAC19B4
:1004500001E07ED0AD5101E07BD0AC6BAD6B640EA2
:10046000E66EE66AD6DBE552E552020EDB6A030E63
:10047000DB6A020EDBCF00F0030EDBCF01F0D89079
:10048000015004E6100E005C000E015861E2020EFD
:10049000DBCF00F0030EDBCF01F0D8900036013641
:1004A000010E0024E66E27D9E552DE6EDD6AD9CF53
:1004B000E9FFDACFEAFFEE50ED6EEF6A020E2D6E25
:1004C0002E6ADBCF32F0030EDBCF33F0CCEC1EF024
:1004D0002B50E66E10D9E552DE26000EDD22DECF6F
:1004E000E6FFDDCFE6FFC7EC0DF0E552E552040E66
:1004F000DB6A050EDB6A040EDBCF00F0050EDBCFF6
:1005000001F0D890015004E6050E005C000E015881
:1005100019E2C7A0FED7040EDBCFE9FF050EDBCF43
:10052000EAFF8E0EE926000EEA22EF50C96EC7A040
:10053000FED7090EC9CFDBFF040EDB2A050EDBE375
:10054000DB2AD9D7020EDB2A030E93E3DB2A91D7ED
:1005500000010A0EA8196BE1A95169E1010EAC195D
:1005600066E1AD5164E1AC6BAD6B640EE66EE66ABC
:1005700050DBE552E552020EDB6A030EDB6A020E27
:10058000DBCF00F0030EDBCF01F0D890015004E682
:10059000070E005C000E01584AE2020EDBCFE9FFB5
:1005A000030EDBCFEAFFD890E936EA36800EE92663
:1005B000000EEA22EECFDEFFEDCFDDFFDECFE6FF5D
:1005C000DDCFE6FFC7EC0DF0E552E552040EDB6A25
:1005D000050EDB6A040EDBCF00F0050EDBCF01F069
:1005E000D890015004E6050E005C000E015819E297
:1005F000C7A0FED7040EDBCFE9FF050EDBCFEAFF75
:100600008E0EE926000EEA22EF50C96EC7A0FED773
:10061000090EC9CFDBFF040EDB2A050EDBE3DB2A64
:10062000D9D7020EDB2A030EAAE3DB2AA8D7F40EE1
:10063000E66E010EE66EEDDAE552E55280D5D9CFD1
:10064000E6FFE1CFD9FF020EE12682848398DE6ABD
:10065000DD6ADECF00F0DDCF01F0D890015004E676
:10066000080E005C000E015816E2FE0EDB50DF5251
:1006700006E0DFCFF3FFE8327F0BF306FCE1010B6E
:10068000E8B08082E8A08092808C809CDF2A010EF6
:10069000E0E3DB2ADED7DE6ADD6ADECF00F0DDCF05
:1006A00001F0D890015004E6080E005C000E0158DD
:1006B00016E2FD0EDB50DF5206E0DFCFF3FFE8323B
:1006C0007F0BF306FCE1010BE8B08280E8A082908A
:1006D00084808490DF2A010EE0E3DB2ADED7829259
:1006E0008282020EE15C02E2E16AE552E16EE552CD
:1006F000E7CFD9FF1200D9CFE6FFE1CFD9FF030E34
:10070000E1268388829482828490DE6ADD6ADECF6D
:1007100000F0DDCF01F0D890015004E6080E005C37
:10072000000E015816E2FE0EDB50DF5206E0DFCF6E
:10073000F3FFE8327F0BF306FCE1010BE8B08082A7
:10074000E8A08092808C809CDF2A010EE0E3DB2A07
:10075000DED784948482848484928350080B01E0E1
:10076000010EE76E020EE7CFDBFFDE6ADD6ADECF49
:1007700000F0DDCF01F0D890015004E6070E005CD8
:10078000000E015824E28480DECF01F0DDCF02F0BC
:10079000010E0126000E02228350080B01E0010E1B
:1007A00001C0E7FFE75204E0E846FE0BE706FCE184
:1007B000006E020EDBCFE7FF0050E726020EE7CF08
:1007C000DBFF8490DF2A010ED2E3DB2AD0D7020EB2
:1007D000DB50006E030EE15C02E2E16AE552E16E7D
:1007E0000050E552E7CFD9FF12008198819E819C8D
:1007F0008394819A81948186818881988394819A57
:100800008194819681888198819E0A0EE66EE66ABF
:1008100000DAE552E55212008198819E819C839412
:10082000819A81848186818881988394819A819438
:10083000819681888198819E0A0EE66EE66AE9D9E2
:10084000E552E5521200D9CFE6FFE1CFD9FF819CF6
:10085000818EFE0EDB380F0B010BE8B08384E8A01D
:100860008394FE0EDB50E00BE838E840010BE8B063
:10087000818AE8A0819A060E006EFE0EDB5000C051
:10088000E7FFE75204E0E8427F0BE706FCE1010BDB
:10089000E8B08184E8A08194FE0EDB44010B010BDB
:1008A000E8B08186E8A0819681888198FE0EDB50B1
:1008B000010BE8B08384E8A08394FE0EDB407F0B3D
:1008C000010BE8B0818AE8A0819AFE0EDB40E84087
:1008D0003F0B010BE8B08184E8A08194FE0EDB4061
:1008E000E840E8401F0B010BE8B08186E8A0819644
:1008F00081888198819E0A0EE66EE66A8AD9E55261
:10090000E552E552E7CFD9FF1200D9CFE6FFE1CF9C
:10091000D9FF020EE126DE6ADD6AFD0EDBCF00F0B4
:10092000FE0EDBCF01F0DE500024F66EDD5001201C
:10093000F76E0800F55016E0FD0EDBCF00F0FE0E5E
:10094000DBCF01F0DE500024F66EDD500120F76EA3
:100950000800F550E66E77DFE552DF2A010EDDE391
:10096000DB2ADBD7020EE15C02E2E16AE552E16ECE
:10097000E552E7CFD9FF1200D9CFE6FFE1CFD9FF8B
:10098000020EE126DE6ADD6AFD0EDBCF00F0FE0E10
:10099000DBCF01F0DE500024E96EDD500120EA6E6D
:1009A000EF5015E0FD0EDBCF00F0FE0EDBCF01F0C7
:1009B000DE500024E96EDD500120EA6EEF50E66E55
:1009C00042DFE552DF2A010EDFE3DB2ADDD7020E2C
:1009D000E15C02E2E16AE552E16EE552E7CFD9FF60
:1009E0001200D9CFE6FFE1CFD9FF100EE126FD0EB0
:1009F000DBCFE6FFFE0EDBCFE6FF5B0E006E440EA4
:100A0000016E026A00C0E6FFE66E02C0E6FFD9CFC3
:100A1000E6FFDACFE6FF4AEC22F0036E070EE15E56
:100A20000350D9CFE6FFDACFE6FFA6DFE552E55265
:100A3000100EE15C02E2E16AE552E16EE552E7CFB9
:100A4000D9FF12008198819C819E8384818A819440
:100A5000819681888198320EE66EE66ADAD8E55290
:100A6000E5528384818A8194819681888198320EAF
:100A7000E66EE66ACED8E552E5528384818A819497
:100A8000819681888198320EE66EE66AC2D8E55278
:100A9000E5528394818A8194819681888198320E6F
:100AA000E66EE66AB6D8E552E5528394818A81946F
:100AB000819681888198320EE66EE66AAAD8E55260
:100AC000E5528394819A8194818681888198320E3F
:100AD000E66EE66A9ED8E552E5528394819A819447
:100AE000819681888198320EE66EE66A92D8E55248
:100AF000E5528394819A8194818681888198320E0F
:100B0000E66EE66A86D8E552E5528394819A81942E
:100B1000819681888198320EE66EE66A7AD8E5522F
:100B2000E5528384819A8194819681888198320EDE
:100B3000E66EE66A6ED8E552E5528394819A819416
:100B4000819681888198320EE66EE66A62D8E55217
:100B5000E5528394818A8184819681888198320EBE
:100B6000E66EE66A56D8E552E5528394819A8194FE
:100B7000819681888198320EE66EE66A4AD8E552FF
:100B8000E5528384818A8184818681888198320EAE
:100B9000E66EE66A3ED8E552E5521200D9CFE6FF8E
:100BA000E1CFD9FF040EE126020EDB6A030EDB6AF9
:100BB000020EDBCF00F0030EDBCF01F0FD0EDBCF2A
:100BC00002F0FE0EDBCF03F00250005C0350015830
:100BD00016E2DE6ADD6ADECF00F0DDCF01F00A0E3C
:100BE000005C000E015805E2DF2A010EF4E3DB2A67
:100BF000F2D7020EDB2A030EDBE3DB2AD9D7040E81
:100C0000E15C02E2E16AE552E16EE552E7CFD9FF2D
:100C10001200D9CFE6FFE1CFD9FF040EE126020E84
:100C2000DB6A030EDB6A020EDBCF00F0030EDBCFC4
:100C300001F0FD0EDBCF02F0FE0EDBCF03F0025021
:100C4000005C0350015816E2DE6ADD6ADECF00F078
:100C5000DDCF01F0320E005C000E015805E2DF2A04
:100C6000010EF4E3DB2AF2D7020EDB2A030EDBE3EC
:100C7000DB2AD9D7040EE15C02E2E16AE552E16EBB
:100C8000E552E7CFD9FF1200DACFE4FFE2CFDAFF77
:100C9000E9CFE4FFEACFE4FFF6CFE4FFF7CFE4FFCC
:100CA000F5CFE4FFF3CFE4FFF4CFE4FFFACFE4FFA6
:100CB00000EE25F0140EE80403E3EECFE4FFFBD7CB
:100CC00000EE00F0250EE80403E3EECFE4FFFBD7CF
:100CD000E652F2A402D09FD9F294F2A203D090EC93
:100CE0000CF0F2929EB624D8E55200EE24F0250EC8
:100CF000E80403E3E5CFEDFFFBD700EE38F0140E78
:100D0000E80403E3E5CFEDFFFBD7E5CFFAFFE5CF3E
:100D1000F4FFE5CFF3FFE5CFF5FFE5CFF7FFE5CF34
:100D2000F6FFE5CFEAFFE5CFE9FFE5CFDAFF1100F7
:100D3000DACFE4FFE2CFDAFFE9CFE4FFEACFE4FF66
:100D4000F6CFE4FFF7CFE4FFF5CFE4FFF3CFE4FF06
:100D5000F4CFE4FFFACFE4FF00EE25F0140EE80430
:100D600003E3EECFE4FFFBD700EE00F0250EE8042E
:100D700003E3EECFE4FFFBD7E652D9CFE6FFE1CFA6
:100D8000D9FFE652C7A002D0C950DF6EDFCFE6FF21
:100D9000AEEC25F0E552DF504A0A2DE0030A25E0CB
:100DA000010A1DE00F0A18E0010A14E0030A10E02E
:100DB000010A0CE0070A08E0010A04E0030A22E144
:100DC000010E0BD0020E09D0030E07D0040E05D081
:100DD000050E03D0060E01D0070E000111D0010E42
:100DE0000001AC6FAD6B080E0BD0010E0001AC6FB3
:100DF000AD6B090E05D0010E0001AC6FAD6B0A0E94
:100E0000A86FA96B9E96E552E552E7CFD9FFE55250
:100E100000EE24F0250EE80403E3E5CFEDFFFBD759
:100E200000EE38F0140EE80403E3E5CFEDFFFBD746
:100E3000E5CFFAFFE5CFF4FFE5CFF3FFE5CFF5FF10
:100E4000E5CFF7FFE5CFF6FFE5CFEAFFE5CFE9FF16
:100E5000E5CFDAFF1100DACFE4FFE2CFDAFFE9CF26
:100E6000E4FFEACFE4FFF6CFE4FFF7CFE4FFF5CFEE
:100E7000E4FFF3CFE4FFF4CFE4FFFACFE4FF00EEAA
:100E800025F0140EE80403E3EECFE4FFFBD700EEF9
:100E900000F0250EE80403E3EECFE4FFFBD7E652B3
:100EA000D9CFE6FFE1CFD9FF030EE126020EE66EB1
:100EB000D9CFE6FFDACFE6FF3FEC24F0E552E5526A
:100EC000E552030EDB6AF298DF50530A4FE01A0A2C
:100ED00034E0190A1AE0160A61E1010EDB504C08F1
:100EE00008E1010E0001A86FA96B4E0E396E440E89
:100EF00058D0010EDB50480851E1020E0001A86FE6
:100F0000A96B400E396E440E4CD0010EDB504C08DC
:100F100008E1030E0001A86FA96B1D0E396E440E87
:100F200040D0010EDB50530839E1040E0001A86FD8
:100F3000A96B0C0E396E440E34D0F288010EDB50D2
:100F40004C0808E1050E0001A86FA96BFA0E396E76
:100F5000430E27D0010EDB50530820E1060E00019E
:100F6000A86FA96BE70E396E430E1BD0010EDB5044
:100F7000500808E1070E0001A86FA96BDA0E396E60
:100F8000430E0FD0010EDB50550808E1080E00019A
:100F9000A86FA96B010EAC6FAD6B0FD02E0E396E22
:100FA000440E3A6E3B6A39C0E6FFE66E3BC0E6FF90
:100FB0000DEC24F0E552E552E5529E9A030EE15CF9
:100FC00002E2E16AE552E16EE552E7CFD9FFE55270
:100FD00000EE24F0250EE80403E3E5CFEDFFFBD798
:100FE00000EE38F0140EE80403E3E5CFEDFFFBD785
:100FF000E5CFFAFFE5CFF4FFE5CFF3FFE5CFF5FF4F
:10100000E5CFF7FFE5CFF6FFE5CFEAFFE5CFE9FF54
:10101000E5CFDAFF1100D9CFE6FFE1CFD9FF0E0E01
:10102000E126010EF36E040EF3CFDBFF050EDB6A43
:10103000809C0001010EA81901E004D1A95101E032
:1010400001D10001802B000E81230001AE2BAF23C4
:10105000030EAE1902E07AEF0CF0AF5102E07AEF26
:101060000CF0AE6BAF6B839C040EDBCFE6FF050E7E
:10107000DBCFE6FFCEDDE552E552838E040EDBCFFB
:10108000E6FF050EDBCFE6FFC4DDE552E552838CBB
:10109000040EDBCFE6FF050EDBCFE6FFBADDE5523F
:1010A000E552839E040EDBCFE6FF050EDBCFE6FFA5
:1010B000B0DDE552E5528350010BDE6EDD6A020EB3
:1010C000DB6A030EDB6A020EDBCF00F0030EDBCF20
:1010D00001F0D890015004E6070E005C000E0158A4
:1010E00033E2808C040EDBCFE6FF050EDBCFE6FF9C
:1010F00090DDE552E552010EE76E020EDBCF00F007
:10110000030EDBCF01F0E7500026000E01228350D2
:10111000010B00C0E7FFE75204E0E846FE0BE706DC
:10112000FCE1DE26000EDD22809C040EDBCFE6FF14
:10113000050EDBCFE6FF6DDDE552E552020EDB2A40
:10114000030EC1E3DB2ABFD7000EDFCF2DF0010E67
:10115000DBCF2EF03CEC1DF02CC000F02DC001F0D8
:101160002EC002F02FC003F0660E316E326E3E0EBE
:10117000336E410E346EA2EC1DF0F9EC1EF0060E3B
:101180002DC0DBFF070E2EC0DBFFFF0EE76E060E45
:10119000DBCF00F0070EE7500016016A0050E66E44
:1011A0000001AAC002F0ABC003F0AA2B000EAB23D3
:1011B0000250E66E1FEC03F0E552E552060E070EF4
:1011C000DBCF01F001C000F0016A0050011002E124
:1011D000000E01D0010EE66E0001AAC002F0ABC005
:1011E00003F0AA2B000EAB230250E66E1FEC03F0B7
:1011F000E552E552200E326E336AAAC02DF0ABC024
:101200002EF0A6EC1EF029C0AAF02AC0ABF0060E04
:10121000DBCFE6FF070EDBCFE6FFE9EC0DF0E55292
:10122000E552F5EC03F0C90EE66E430EE66E85EC72
:1012300004F0E552E5520CEC04F0060EDBCFE6FFBD
:10124000070E4AD3020EA81901E0FAD0A95101E015
:10125000F7D00001822B000E8323839C040EDBCF8A
:10126000E6FF050EDBCFE6FFD4DCE552E552838EC8
:10127000040EDBCFE6FF050EDBCFE6FFCADCE5524E
:10128000E552838C040EDBCFE6FF050EDBCFE6FFD5
:10129000C0DCE552E552839E040EDBCFE6FF050E6F
:1012A000DBCFE6FFB6DCE552E5528350020B01E0EE
:1012B000010EDE6EDD6A020EDB6A030EDB6A020ED1
:1012C000DBCF00F0030EDBCF01F0D890015004E635
:1012D000070E005C000E015835E2808C040EDBCF57
:1012E000E6FF050EDBCFE6FF94DCE552E552010E8A
:1012F000E76E020EDBCF00F0030EDBCF01F0E7500C
:101300000026000E01228350020B01E0010E00C0F6
:10131000E7FFE75204E0E846FE0BE706FCE1DE26C5
:10132000000EDD22809C040EDBCFE6FF050EDBCF36
:10133000E6FF6FDCE552E552020EDB2A030EBFE347
:10134000DB2ABDD7000EDFCF2DF0010EDBCF2EF054
:101350003CEC1DF02CC000F02DC001F02EC002F0BE
:101360002FC003F0EC0E316E510E326EA80E336EAC
:10137000400E346EA2EC1DF0F9EC1EF0080E2DC0EC
:10138000DBFF090E2EC0DBFFFF0EE76E080EDBCF82
:1013900000F0090EE7500016016A0050E66E0001E9
:1013A000AAC002F0ABC003F0AA2B000EAB23025080
:1013B000E66E1FEC03F0E552E552080E090EDBCF96
:1013C00001F001C000F0016A0050011002E1000EBE
:1013D00001D0010EE66E0001AAC002F0ABC003F01E
:1013E000AA2B000EAB230250E66E1FEC03F0E55271
:1013F000E552200E326E336AAAC02DF0ABC02EF03B
:10140000A6EC1EF029C0AAF02AC0ABF0080EDBCF74
:10141000E6FF090EDBCFE6FFDCDBE552E552F5EC3B
:1014200003F0B80EE66E430EE66E85EC04F0E5526E
:10143000E5520CEC04F0080EDBCFE6FF090E4CD2AF
:10144000030EA81901E027D1A95101E024D1000120
:10145000842B000E85230001AE2BAF23030EAE19A3
:1014600001E048D2AF5101E045D2AE6BAF6B839C37
:10147000040EDBCFE6FF050EDBCFE6FF09EC06F03E
:10148000E552E552838E040EDBCFE6FF050EDBCF7F
:10149000E6FF09EC06F0E552E552838C040EDBCF43
:1014A000E6FF050EDBCFE6FF09EC06F0E552E5525C
:1014B000839E040EDBCFE6FF050EDBCFE6FF09ECD3
:1014C00006F0E552E5528350010BDE6EDD6A020E36
:1014D000DB6A030EDB6A020EDBCF00F0030EDBCF0C
:1014E00001F0D890015004E6070E005C000E015890
:1014F00035E2808C040EDBCFE6FF050EDBCFE6FF86
:1015000009EC06F0E552E552010EE76E020EDBCF64
:1015100000F0030EDBCF01F0E7500026000E0122A1
:101520008350010B00C0E7FFE75204E0E846FE0BE2
:10153000E706FCE1DE26000EDD22809C040EDBCFF8
:10154000E6FF050EDBCFE6FF09EC06F0E552E552BB
:10155000020EDB2A030EBFE3DB2ABDD7006A016A55
:10156000C80E026E420E036E000EDFCF2DF0010E8C
:10157000DBCF2EF03CEC1DF02CC008F02DC009F0A4
:101580002EC00AF02FC00BF09A0E316E990E326EFB
:10159000336E3F0E346EA2EC1DF02CC004F02DC053
:1015A00005F02EC006F02FC007F02CC031F02DC082
:1015B00032F02EC033F02FC034F000C02CF001C048
:1015C0002DF002C02EF003C02FF04FEC1DF0F9EC0F
:1015D0001EF00A0E2DC0DBFF0B0E2EC0DBFFFF0E30
:1015E000E76E0A0EDBCF00F00B0EE7500016016A23
:1015F0000050E66E0001AAC002F0ABC003F0AA2BB7
:10160000000EAB230250E66E1FEC03F0E552E552EC
:101610000A0E0B0EDBCF01F001C000F0016A005092
:10162000011002E1000E01D0010EE66E0001AAC019
:1016300002F0ABC003F0AA2B000EAB230250E66E03
:101640001FEC03F0E552E552200E326E336AAAC059
:101650002DF0ABC02EF0A6EC1EF029C0AAF02AC0D7
:10166000ABF00A0EDBCFE6FF0B0EDBCFE6FFB1DA05
:10167000E552E552F5EC03F0A70EE66E430EE66E7A
:1016800085EC04F0E552E5520CEC04F00A0EDBCFD9
:10169000E6FF0B0E21D1040EA81901E02BD1A951B0
:1016A00001E028D10001862B000E8723839C040EC5
:1016B000DBCFE6FF050EDBCFE6FF09EC06F0E552D7
:1016C000E552838E040EDBCFE6FF050EDBCFE6FF8F
:1016D00009EC06F0E552E552838C040EDBCFE6FF01
:1016E000050EDBCFE6FF09EC06F0E552E552839EDE
:1016F000040EDBCFE6FF050EDBCFE6FF09EC06F0BC
:10170000E552E5528350020B01E0010EDE6EDD6A08
:10171000020EDB6A030EDB6A020EDBCF00F0030E63
:10172000DBCF01F0D890015004E6070E005C000EFC
:10173000015835E2808C040EDBCFE6FF050EDBCFCF
:10174000E6FF09EC06F0E552E552010EE76E020EE7
:10175000DBCF00F0030EDBCF01F0E7500026000ED8
:1017600001228350010B00C0E7FFE75204E0E84686
:10177000FE0BE706FCE1DE26000EDD22809C040E57
:10178000DBCFE6FF050EDBCFE6FF09EC06F0E55206
:10179000E552020EDB2A030EBFE3DB2ABDD7046A43
:1017A000400E056E1C0E066E460E076E000EDFCF55
:1017B0002DF0010EDBCF2EF03CEC1DF02CC008F01C
:1017C0002DC009F02EC00AF02FC00BF02CC031F054
:1017D0002DC032F02EC033F02FC034F004C02CF0F6
:1017E00005C02DF006C02EF007C02FF04FEC1DF005
:1017F0002CC000F02DC001F02EC002F02FC003F06D
:10180000660E316E326EF60E336E400E346EA2EC02
:101810001DF0F9EC1EF00C0E2DC0DBFF0D0E2EC0DE
:10182000DBFFFF0EE76E0C0EDBCF00F00D0EE75076
:101830000016016A0050E66E0001AAC002F0ABC0BB
:1018400003F0AA2B000EAB230250E66E1FEC03F050
:10185000E552E5520C0E0D0EDBCF01F001C000F099
:10186000016A0050011002E1000E01D0010EE66E87
:101870000001AAC002F0ABC003F0AA2B000EAB23FC
:101880000250E66E1FEC03F0E552E552200E326E78
:10189000336AAAC02DF0ABC02EF0A6EC1EF029C012
:1018A000AAF02AC0ABF00C0EDBCFE6FF0D0EDBCFAB
:1018B000E6FF8FD9E552E552F5EC03F0960EE66EA1
:1018C000430EE66E85EC04F0E552E5520CEC04F0B4
:1018D0000C0EDBCFE6FF0D0EDBCFE6FFF1EC04F0E4
:1018E000E552E5525E0EE66E440EE66E85EC04F0BF
:1018F000E552E552838A040EDBCFE6FF050EDBCF0F
:10190000E6FF09EC06F0E552E552839A0E0EE15C23
:1019100002E2E16AE552E16EE552E7CFD9FF12003B
:10192000D9CFE6FFE1CFD9FF040EE126000EE66E27
:10193000E66A5AEC25F0E552E552000EE66EE66ADC
:1019400076EC25F0E552E5520001060EA81901E0FB
:1019500080D0A95101E07DD000018A2B000E8B239D
:1019600081B0FED71CEC25F0F3CF00F0F4CF01F0EE
:10197000030E326E336AF3CF2DF0F4CF2EF0C5ECA8
:1019800025F02DC000F02EC001F02DC0DEFF2EC0CE
:10199000DDFFDECF00F0DDCF01F00050E66E00018C
:1019A000AAC002F0ABC003F0AA2B000EAB2302507A
:1019B000E66E1FEC03F0E552E552DECF00F0DDCF1E
:1019C00001F001C000F0016A0050011002E1000EB8
:1019D00001D0010EE66E0001AAC002F0ABC003F018
:1019E000AA2B000EAB230250E66E1FEC03F0E5526B
:1019F000E552200E326E336AAAC02DF0ABC02EF035
:101A0000A6EC1EF029C0AAF02AC0ABF0DECFE6FF9C
:101A1000DDCFE6FFDED8E552E552F5EC03F0850EAA
:101A2000E66E430EE66E85EC04F0E552E5520CECF2
:101A300004F0DECFE6FFDDCFE6FFF1EC04F0E55287
:101A4000E5525E0EE66E440EE66E85EC04F0E5525D
:101A5000E5520001050EA81901E08FD0A95101E05F
:101A60008CD00001882B000E892381B0FED73BEC7F
:101A700025F0F3CF00F0F4CF01F0270E326E336A79
:101A8000F3CF2DF0F4CF2EF0C5EC25F02DC000F0F3
:101A90002EC001F0020E2DC0DBFF030E2EC0DBFFB7
:101AA000FF0EE76E020EDBCF00F0030EDBCF01F07E
:101AB000E7500016016A0050E66E0001AAC002F06D
:101AC000ABC003F0AA2B000EAB230250E66E1FEC56
:101AD00003F0E552E552020EDBCF00F0030EDBCF40
:101AE00001F001C000F0016A0050011002E1000E97
:101AF00001D0010EE66E0001AAC002F0ABC003F0F7
:101B0000AA2B000EAB230250E66E1FEC03F0E55249
:101B1000E552200E326E336AAAC02DF0ABC02EF013
:101B2000A6EC1EF029C0AAF02AC0ABF0020EDBCF53
:101B3000E6FF030EDBCFE6FF4CD8E552E552F5ECAD
:101B400003F0740EE66E430EE66E85EC04F0E5528B
:101B5000E5520CEC04F0020EDBCFE6FF030EDBCF08
:101B6000E6FFF1EC04F0E552E5525E0EE66E440E3F
:101B7000E66E85EC04F0E552E552040EE15C02E20B
:101B8000E16AE552E16EE552E7CFD9FF1200D9CF05
:101B9000E6FFE1CFD9FFFD0EDBCFE6FFFE0EDBCF88
:101BA000E6FF6F0E006E430E016E026A00C0E6FF94
:101BB000E66E02C0E6FF8E0EE66E000EE66E4AECA2
:101BC00022F0036E070EE15E0350E552E7CFD9FF26
:101BD0001200D9CFE6FFE1CFD9FF100EE126FD0EAE
:101BE000DBCFE6FFFE0EDBCFE6FF6A0E006E430E94
:101BF000016E026A00C0E6FFE66E02C0E6FFD9CFC2
:101C0000E6FFDACFE6FF4AEC22F0036E070EE15E54
:101C10000350D9CFE6FFDACFE6FF6EEC24F0E552B1
:101C2000E552100EE15C02E2E16AE552E16EE55236
:101C3000E7CFD9FF1200D9CFE6FFE1CFD9FF100ED1
:101C4000E126FD0EDBCFE6FFFE0EDBCFE6FF5B0EEF
:101C5000006E440E016E026A00C0E6FFE66E02C02E
:101C6000E6FFD9CFE6FFDACFE6FF4AEC22F0036EBB
:101C7000070EE15E0350D9CFE6FFDACFE6FF6EEC48
:101C800024F0E552E552100EE15C02E2E16AE55211
:101C9000E16EE552E7CFD9FF1200D9CFE6FFE1CFE1
:101CA000D9FF100EE126046A056AC80E066E420EC0
:101CB000076EFB0EDBCF0CF0FC0EDBCF0DF0FD0E44
:101CC000DBCF0EF0FE0EDBCF0FF0FB0EDBCF2CF0E8
:101CD000FC0EDBCF2DF0FD0EDBCF2EF0FE0EDBCFAA
:101CE0002FF0F9EC1EF03CEC1DF02CC010F02DC0D4
:101CF00011F02EC012F02FC013F02CC031F02DC007
:101D000032F02EC033F02FC034F00CC02CF00DC0D8
:101D10002DF00EC02EF00FC02FF00FEC1EF02CC0D7
:101D200008F02DC009F02EC00AF02FC00BF02CC017
:101D300031F02DC032F02EC033F02FC034F004C08B
:101D40002CF005C02DF006C02EF007C02FF0A2EC3D
:101D50001DF02CC000F02DC001F02EC002F02FC0ED
:101D600003F02CC0E6FF2DC0E6FF2EC0E6FF2FC01B
:101D7000E6FFFB0EDBCF2CF0FC0EDBCF2DF0FD0ED3
:101D8000DBCF2EF0FE0EDBCF2FF0F9EC1EF02DC0D6
:101D900014F02EC015F02DC0E6FF2EC0E6FF640E35
:101DA000166E430E176E186A16C0E6FFE66E18C070
:101DB000E6FFD9CFE6FFDACFE6FF4AEC22F0196E54
:101DC0000B0EE15E1950D9CFE6FFDACFE6FF6EECDD
:101DD00024F0E552E552100EE15C02E2E16AE552C0
:101DE000E16EE552E7CFD9FF1200D9CFE6FFE1CF90
:101DF000D9FFE150FB0FE96EFF0EDA20EA6EEECF5D
:101E0000E6FFEECFE6FFEECFE6FFEFCFE6FF45DFE2
:101E1000E552E552E552E552610E006E430E016E49
:101E2000026A00C0E6FFE66E02C0E6FF0DEC24F099
:101E3000E552E552E552E552E7CFD9FF1200D9CF7E
:101E4000E6FFE1CFD9FF100EE126FD0EDBCFE6FF66
:101E5000FE0EDBCFE6FF5C0E006E430E016E026AE3
:101E600000C0E6FFE66E02C0E6FFD9CFE6FFDACF9C
:101E7000E6FF4AEC22F0036E070EE15E0350D9CF75
:101E8000E6FFDACFE6FF6EEC24F0E552E552100EE5
:101E9000E15C02E2E16AE552E16EE552E7CFD9FF8B
:101EA0001200D9CFE6FFE1CFD9FF120EE126800E56
:101EB000F36E0A0EF3CFDBFF0B0EDB6ADE6ADD6A20
:101EC000060EDB6A070EDB6A060EDBCF00F0070E9C
:101ED000DBCF01F0D890015004E6FF0E005C000E4D
:101EE000015801E38FD1060EDBCF00F0070EDBCFE8
:101EF00001F0DECF02F0DDCF03F001500318E8AEB1
:101F000002D0033404D00250005C0350015801E3B6
:101F100026D1060EDBCF00F0070EDBCF01F0D89004
:101F2000015004E6800E005C000E01580FE2060E20
:101F3000DBCF00F0070EDBCF01F0D8900036013682
:101F4000FD0EDB500024E96EFE0E12D0060EDBCF34
:101F500000F0070EDBCF01F07F0E005E000E015A8D
:101F6000D89000360136FB0EDB500024E96EFC0EE3
:101F7000DB500120EA6E040EEECFDBFF050EEDCF45
:101F8000DBFF060EDBCF00F0070EDBCF01F0D890B1
:101F9000015004E6800E005C000E015819E2DECF0D
:101FA00002F0DDCF03F0D890035004E6800E025C0F
:101FB000000E03580DE2DECF04F0DDCF05F0D8901F
:101FC00004360536FD0EDB500424E96EFE0E4FD0BC
:101FD000060EDBCF00F0070EDBCF01F001341EE26E
:101FE00000508008000E015419E2DECF02F0DDCF70
:101FF00003F0D890035004E6800E025C000E0358F4
:102000000DE2DECF04F0DDCF05F0D89004360536C2
:10201000FD0EDB500424E96EFE0E4FD0060EDBCF22
:1020200000F0070EDBCF01F0D890015004E6800EDF
:10203000005C000E015831E2DECF02F0DDCF03F08C
:1020400003342BE202508008000E035426E2DECF58
:1020500004F0DDCF05F07F0E045E000E055AD89027
:1020600004360536FB0EDB500424E96EFC0EDB5013
:102070000520EA6EEECF02F0EFCF03F0060EDBCFC5
:1020800000F0070EDBCF01F0D89000360136FD0ED0
:10209000DB500024E96EFE0E29D0DECF04F0DDCF48
:1020A00005F07F0E045E000E055AD8900436053602
:1020B000FB0EDB500424E96EFC0EDB500520EA6EBB
:1020C000EECF02F0EFCF03F0060EDBCF00F0070EED
:1020D000DBCF01F07F0E005E000E015AD890003673
:1020E0000136FB0EDB500024E96EFC0EDB500120B4
:1020F000EA6E02C0EEFF03C0EDFFDECF00F0DDCFE1
:1021000001F0D890015004E6800E005C000E0158EA
:102110000DE2DECF00F0DDCF01F0D89000360136C1
:10212000FD0EDB500024E96EFE0E10D0DECF00F075
:10213000DDCF01F07F0E005E000E015AD890003610
:102140000136FB0EDB500024E96EFC0EDB50012053
:10215000EA6E040EDBCFEEFF050EDBCFEDFF0A0EBD
:10216000DBCF2DF00B0EDBCF2EF0080E2DC0DBFFEA
:10217000090E2EC0DBFF080EDBCF00F0090EDBCF0F
:1021800001F0DECF02F0DDCF03F003500118E8AE1E
:1021900002D0013404D00050025C015003581DE30A
:1021A000080EDBCF00F0090EDBCF01F0D9CFE9FF3D
:1021B000DACFEAFF0050EE5E0150ED5AD950080F19
:1021C000E96EDACFEAFF010E0F0BD5E0EC52D890A2
:1021D000ED32EF32E806FAE1CED7080EDBCF00F0A1
:1021E000090EDBCF01F0D9CFE9FFDACFEAFF0050CB
:1021F000EE260150ED22060EDB2A070E01E264D620
:10220000DB2A62D6100EDB6A110EDB6A010EF36E5A
:102210000A0EF3CFDBFF0B0EDB6A060EDB6A070E3E
:10222000DB6A060EDBCF00F0070EDBCF01F0D890A3
:10223000015004E6080E005C000E015802E395EF21
:1022400015F00A0EDBCF2DF00B0EDBCF2EF0080EB3
:102250002DC0DBFF090E2EC0DBFFD9500A0FE96E3F
:10226000DACFEAFF010ED890EE36ED36E806FBE154
:10227000040EDB6A050EDB6A040EDBCF00F0050EF0
:10228000DBCF01F0080EDBCF02F0090EDBCF03F04D
:1022900001500318E8AE02D0033404D00250005CB1
:1022A0000350015802E38CEF15F0040EDBCFDEFF84
:1022B000DBCFDDFFDECF00F0DDCF01F0D8900150A5
:1022C00004E6000E005C010E015802E37EEF15F0FB
:1022D000080EDBCF02F0090EDBCF03F0DE50022444
:1022E000006EDD500320016E020E00C0DBFF030E06
:1022F00001C0DBFF020EDBCF00F0030EDBCF01F0ED
:10230000D890015004E6800E005C000E015801E3F5
:10231000D5D0100EDBCFF6FF110EDBCFF7FF5C0E32
:10232000F6263F0EF7220800F5CF04F0056A04BE3A
:102330000568020EDBCF08F0030EDBCF09F0D89062
:1023400008360936FD0EDB500824E96EFE0EDB5020
:102350000920EA6EEECF06F0EFCF07F0000106503D
:102360000402F3CF02F0F4CF03F00502F35003268A
:1023700007500402F3500326020EDBCF0EF0030ECB
:10238000DBCF0FF0D8900E360F36F90EDB500E244F
:10239000E96EFA0EDB500F20EA6EEECF0CF0EFCFB5
:1023A0000DF0100EDBCFF6FF110EDBCFF7FF5C0E4A
:1023B000F626400EF7220800F5CF0AF00B6A0ABE97
:1023C0000B680AC02DF00BC02EF00CC032F00DC00F
:1023D00033F0CCEC1EF02B50025C006E2C500358F6
:1023E000016E200E326E336A00C02DF001C02EF057
:1023F000A6EC1EF02DC000F02EC001F00C0E2DC07A
:10240000DBFF0D0E2EC0DBFF100EDBCFF6FF110E33
:10241000DBCFF7FF5C0EF6263F0EF7220800F5CF64
:1024200004F0056A04BE0568020EDBCF08F0030E57
:10243000DBCF09F0D89008360936F90EDB500824B6
:10244000E96EFA0EDB500920EA6EEECF06F0EFCF10
:1024500007F0000106500402F3CF02F0F4CF03F0BE
:102460000502F350032607500402F3500326020E20
:10247000DBCF0EF0030EDBCF0FF0D8900E360F3609
:10248000FD0EDB500E24E96EFE0EDB500F20EA6ECF
:10249000EECF0CF0EFCF0DF0100EDBCFF6FF110EEC
:1024A000DBCFF7FF5C0EF626400EF7220800F5CFD3
:1024B0000AF00B6A0AAEE5D00B68E3D0100EDBCF52
:1024C000F6FF110EDBCFF7FF5C0EF6263F0EF7226C
:1024D0000800F5CF04F0056A04BE0568020EDBCFE4
:1024E00008F0030EDBCF09F07F0E085E000E095ADC
:1024F000D89008360936FB0EDB500824E96EFC0E36
:10250000DB500920EA6EEECF06F0EFCF07F00001B6
:1025100006500402F3CF02F0F4CF03F00502F350AB
:10252000032607500402F3500326020EDBCF0EF001
:10253000030EDBCF0FF07F0E0E5E000E0F5AD89009
:102540000E360F36F70EDB500E24E96EF80EDB5018
:102550000F20EA6EEECF0CF0EFCF0DF0100EDBCFB8
:10256000F6FF110EDBCFF7FF5C0EF626400EF722CA
:102570000800F5CF0AF00B6A0ABE0B680AC02DF0FE
:102580000BC02EF00CC032F00DC033F0CCEC1EF0BE
:102590002B50025C006E2C500358016E200E326EE0
:1025A000336A00C02DF001C02EF0A6EC1EF02DC045
:1025B00000F02EC001F00C0E2DC0DBFF0D0E2EC062
:1025C000DBFF100EDBCFF6FF110EDBCFF7FF5C0E4B
:1025D000F6263F0EF7220800F5CF04F0056A04BE88
:1025E0000568020EDBCF08F0030EDBCF09F07F0E8B
:1025F000085E000E095AD89008360936F70EDB50EF
:102600000824E96EF80EDB500920EA6EEECF06F0E2
:10261000EFCF07F0000106500402F3CF02F0F4CF31
:1026200003F00502F350032607500402F35003267B
:10263000020EDBCF0EF0030EDBCF0FF07F0E0E5E2F
:10264000000E0F5AD8900E360F36FB0EDB500E24BC
:10265000E96EFC0EDB500F20EA6EEECF0CF0EFCFF0
:102660000DF0100EDBCFF6FF110EDBCFF7FF5C0E87
:10267000F626400EF7220800F5CF0AF00B6A0ABED4
:102680000B680AC02DF00BC02EF00CC032F00DC04C
:1026900033F0CCEC1EF002502B24006E03502C20A3
:1026A000016E200E326E336A00C02DF001C02EF094
:1026B000A6EC1EF00E0E2DC0DBFF0F0E2EC0DBFFB2
:1026C000020EDBCF00F0030EDBCF01F0D8900150FB
:1026D00004E6800E005C000E015849E2DECF02F0F5
:1026E000DDCF03F0D890035004E6800E025C000EAC
:1026F00003583DE2DECF06F0DDCF07F0D890063676
:102700000736FD0EDB500624E96EFE0EDB50072077
:10271000EA6EEECF04F0EFCF05F00C0EDB50045C58
:10272000026E0D0EDB500558036E020EDBCF00F07B
:10273000030EDBCF01F0D89000360136FD0EDB50E2
:102740000024E96EFE0EDB500120EA6E02C0EEFFAF
:1027500003C0EDFFDECF06F0DDCF07F0D8900636E0
:102760000736F90EDB500624E96EFA0EB7D0020EDA
:10277000DBCF00F0030EDBCF01F0013452E200505A
:102780008008000E01544DE2DECF02F0DDCF03F0F1
:10279000D890035004E6800E025C000E035841E21C
:1027A000DECF06F0DDCF07F0D89006360736FD0EF7
:1027B000DB500624E96EFE0EDB500720EA6EEECFFA
:1027C00004F0EFCF05F00C0EDB50045C026E0D0E32
:1027D000DB500558036E020EDBCF00F0030EDBCF9B
:1027E00001F07F0E005E000E015AD89000360136CF
:1027F000FB0EDB500024E96EFC0EDB500120EA6E7C
:1028000002C0EEFF03C0EDFFDECF06F0DDCF07F024
:10281000D89006360736F90EDB500624E96EFA0E1C
:10282000C3D0020EDBCF00F0030EDBCF01F0D89057
:10283000015004E6800E005C000E01586DE2DECF10
:1028400002F0DDCF03F0033467E202508008000E8F
:10285000035462E2DECF06F0DDCF07F07F0E065EA6
:10286000000E075AD89006360736FB0EDB500624BA
:10287000E96EFC0EDB500720EA6EEECF04F0EFCFDE
:1028800005F00C0EDB50045C026E0D0EDB5005589B
:10289000036E020EDBCF00F0030EDBCF01F0D89009
:1028A00000360136FD0EDB500024E96EFE0EDB50D3
:1028B0000120EA6E02C0EEFF03C0EDFFDECF06F09E
:1028C000DDCF07F07F0E065E000E075AD890063661
:1028D0000736F70EDB500624E96EF80EDB500720B2
:1028E000EA6EEECF04F0EFCF05F00E0EDB50045C85
:1028F000026E0F0EDB500558036E020EDBCF00F0A8
:10290000030EDBCF01F0D89000360136F90EDB5014
:102910000024E96EFA0E69D0DECF06F0DDCF07F0B5
:102920007F0E065E000E075AD89006360736FB0E5D
:10293000DB500624E96EFC0EDB500720EA6EEECF7A
:1029400004F0EFCF05F00C0EDB50045C026E0D0EB0
:10295000DB500558036E020EDBCF00F0030EDBCF19
:1029600001F07F0E005E000E015AD890003601364D
:10297000FB0EDB500024E96EFC0EDB500120EA6EFA
:1029800002C0EEFF03C0EDFFDECF06F0DDCF07F0A3
:102990007F0E065E000E075AD89006360736F70EF1
:1029A000DB500624E96EF80EDB500720EA6EEECF0E
:1029B00004F0EFCF05F00E0EDB50045C026E0F0E3C
:1029C000DB500558036E020EDBCF00F0030EDBCFA9
:1029D00001F07F0E005E000E015AD89000360136DD
:1029E000F70EDB500024E96EF80EDB500120EA6E92
:1029F00002C0EEFF03C0EDFFDECF00F0DDCF01F03F
:102A0000D890015004E6800E005C000E01582CE2C4
:102A10000C0EDBCF02F00D0EDBCF03F0DECF00F0AB
:102A2000DDCF01F0D89000360136FD0EDB500024DA
:102A3000E96EFE0EDB500120EA6E0250EE260350D6
:102A4000ED220E0EDBCF02F00F0EDBCF03F0DECF58
:102A500000F0DDCF01F0D89000360136F90EDB50E2
:102A60000024E96EFA0E33D00C0EDBCF02F00D0E0F
:102A7000DBCF03F0DECF00F0DDCF01F07F0E005E94
:102A8000000E015AD89000360136FB0EDB500024B0
:102A9000E96EFC0EDB500120EA6E0250EE26035078
:102AA000ED220E0EDBCF02F00F0EDBCF03F0DECFF8
:102AB00000F0DDCF01F07F0E005E000E015AD890CD
:102AC00000360136F70EDB500024E96EF80EDB50BD
:102AD0000120EA6E0250EE260350ED220A0EDBCFF3
:102AE00000F00B0EDBCF01F0D9CFE9FFDACFEAFF20
:102AF0000050EE260150ED225AEF11F0100EDB2AA5
:102B0000110E01E3DB2A040EDB2A050E02E23CEF84
:102B100011F0DB2A3CEF11F0060EDB2A070E02E271
:102B200011EF11F0DB2A11EF11F0010EF36E040E1C
:102B3000F3CFDBFF050EDB6A060EDB6A070EDB6AEE
:102B4000010EDE6EDD6ADECF00F0DDCF01F0D89041
:102B5000015004E6800E005C000E015801E365D1CF
:102B6000DECF17F0DDCF18F0D89017361836F90EF3
:102B7000DB501724E96EFA0EDB501820EA6EEECF18
:102B800015F0EFCF16F0800E161418E0DECF19F016
:102B9000DDCF1AF0D89019361A36F90EDB50192409
:102BA000E96EFA0EDB501A20EA6EEECF13F0EFCF8B
:102BB00014F0136C141E000E142213D0DECF1BF081
:102BC000DDCF1CF0D8901B361C36F90EDB501B24D1
:102BD000E96EFA0EDB501C20EA6EEECF13F0EFCF59
:102BE00014F0143409E21350FF08010E145404E2E7
:102BF000F668010EF76E41D0DECF1FF0DDCF20F07A
:102C0000D8901F362036F90EDB501F24E96EFA0EDD
:102C1000DB502020EA6EEECF1DF0EFCF1EF0800ECD
:102C20001E1418E0DECF21F0DDCF22F0D89021363F
:102C30002236F90EDB502124E96EFA0EDB502220F9
:102C4000EA6EEECFF6FFEFCFF7FFF66CF71E000E41
:102C5000F72213D0DECF23F0DDCF24F0D890233637
:102C60002436F90EDB502324E96EFA0EDB502420C3
:102C7000EA6EEECFF6FFEFCFF7FF5C0EF626410EC1
:102C8000F7220800F5CF12F0DECF04F0DDCF05F01B
:102C9000D89004360536FD0EDB500424E96EFE0E96
:102CA000DB500520EA6EEECF02F0EFCF03F0800E8E
:102CB000031418E0DECF06F0DDCF07F0D89006361B
:102CC0000736FD0EDB500624E96EFE0EDB500720B2
:102CD000EA6EEECF00F0EFCF01F0006C011E000EA7
:102CE000012213D0DECF08F0DDCF09F0D8900836EE
:102CF0000936FD0EDB500824E96EFE0EDB5009207C
:102D0000EA6EEECF00F0EFCF01F0013409E200509F
:102D1000FF08010E015404E2F668010EF76E41D07F
:102D2000DECF0CF0DDCF0DF0D8900C360D36FD0E59
:102D3000DB500C24E96EFE0EDB500D20EA6EEECF68
:102D40000AF0EFCF0BF0800E0B1418E0DECF0EF080
:102D5000DDCF0FF0D8900E360F36FD0EDB500E246F
:102D6000E96EFE0EDB500F20EA6EEECFF6FFEFCFDE
:102D7000F7FFF66CF71E000EF72213D0DECF10F02F
:102D8000DDCF11F0D89010361136FD0EDB50102437
:102D9000E96EFE0EDB501120EA6EEECFF6FFEFCFAC
:102DA000F7FF5C0EF626410EF7220800F5501224BC
:102DB000E66ED950080FE96EDACFEAFFE552E75028
:102DC000EE6EED6A080EDBCF00F0090EDBCF01F0EE
:102DD000060EDBCF02F0070EDBCF03F00350011825
:102DE000E8AE02D0013404D00050025C0150035818
:102DF00016E2D9CFE9FFDACFEAFF040EEECFDBFF10
:102E0000050EEDCFDBFF080EDBCF2DF0090EDBCF7B
:102E10002EF0060E2DC0DBFF070E2EC0DBFFDF2AD3
:102E2000010E01E290D6DB2A8ED6040EDBCF00F035
:102E3000050EDBCF01F000C0F3FF01C0F4FF120E5E
:102E4000E15C02E2E16AE552E16EE552E7CFD9FFCB
:022E500012006E
:0E2E520065EC1CF0FB0EDBCFF3FFDB06F3504C
:102E600000090AE0B3EC1CF0FA0E1EEC1DF0F3E1D1
:102E7000011CF1E1010E01D0000E94EF1CF065EC95
:102E80001CF03B0EE12402E3E168E652E16E010E24
:102E9000DB6A020EDB6AF90EDBCFF6FFFA0EDBCF40
:102EA000F7FFFB0EDBCFF8FF0800F550DF6EDF50B9
:102EB00002E1B8EF1BF0250EDF5C02E0ABEF1BF088
:102EC000030EDB6A040EDB6A050EDB6A060EDB6AA4
:102ED000070EDB6ACDEC1BF02D0EDF5C0CE02B0E39
:102EE000DF5C09E0200EDF5C06E0230EDF5C03E020
:102EF000300EDF5C1AE1DF50300A14E0130A0FE0F5
:102F0000030A0AE00B0A05E0060AE4E1030EDB808F
:102F1000E1D7030EDB82DED7030EDB84DBD7030EA3
:102F2000DB86D8D7030EDB88D5D72A0EDF5C1BE102
:102F3000C9EC1BF017EC1CF010E0030EDB802D68D1
:102F40002E68130EDBCF32F0140EDBCF33F0CCEC57
:102F50001EF0040E2BC0DBFF03D0130E00EC1CF0A0
:102F6000CDEC1BF00BD0090EDB6A6EEC1CF003E01D
:102F7000E2EC1CF0FAD7090E00EC1CF0030EDBB0FB
:102F8000DB982E0EDF5C1BE1CDEC1BF02A0EDF5C24
:102F90000BE1C9EC1BF017EC1CF003E1130E52EC33
:102FA0001CF0CDEC1BF00BD0090EDB6A6EEC1CF0B4
:102FB00003E0E2EC1CF0FAD7090E52EC1CF0680EAC
:102FC000DF5C07E1CDEC1BF0680EDF5C1DE1030E5A
:102FD00018D0740EDF5C17E07A0EDF5C14E0480E48
:102FE000DF5C06E0540EDF5C03E05A0EDF5C02E1BA
:102FF000020E07D06C0EDF5C03E06A0EDF5C04E1BA
:10300000010EA5EC1CF0C9DBDF506E0A01E17FD395
:103010001E0A01E192D1200A01E18FD13F0A01E1AC
:1030200049D11A0A01E146D10D0A01E143D1200A32
:1030300001E140D13A0A01E13DD1200A01E13AD152
:10304000260A01E135D10D0A01E132D11A0A01E166
:10305000D9D0200A4AE0300A1FE0460A0EE0250ACD
:1030600001E083D3D950F90FE96EFF0EDA20EA6E42
:10307000010EEE5E000EEE5AEE5AB3EC1CF0250E79
:10308000E66E95DB03E1011C01E169D3AFEC1CF0B6
:1030900001E26BD3DB2A69D3080EDB6A040EDB5036
:1030A000010806E2040EDB0477EC1CF0DB508BDB3E
:1030B000080EDB5009E0030EDB50010B05E172DB6B
:1030C00001E04DD3080EDB6A64DBEFCFDFFF27ECB6
:1030D0001DF003E1011C01E142D3AFEC1CF001E360
:1030E000DB2A60DB01E141D33AD3070EDB50020853
:1030F0000FE1F3EC1CF0030EBAEC1CF00E0EEECF59
:10310000DBFF0F0EEECFDBFF100EEECFDBFF20D08C
:10311000F70EDBCF03F0F80EDBCF04F0020E035EF8
:10312000000E045AF70E03C0DBFFF80E04C0DBFFED
:1031300003C0E9FF04C0EAFFAAEC1CF0026A0E0E0D
:1031400000C0DBFF0F0E01C0DBFF100E02C0DBFF73
:103150000E0EDBCFE6FF0F0EDBCFE6FF100EDBCF50
:10316000E6FFE8EC23F0E552E552E552130E2CC0E1
:10317000DBFF140E2DC0DBFF060EDB5005E0130E47
:10318000EEEC1CF001E26ADB12EC1DF002E2130E21
:1031900037DBD5EC1CF006E0040EEEEC1CF002E28E
:1031A000050E2EDB030EDBB005D0FCDA01E0D7D232
:1031B000080EDB6A090EDB6A0E0EDBCFF6FF0F0E80
:1031C000DBCFF7FF100EDBCFF8FF0800F550DF6E06
:1031D000DF5014E018EC1DF011E227EC1DF003E1C4
:1031E000011C01E1BCD2BBDB01E3DB2A090EDB2AB7
:1031F000D9500E0FE96E000ECBDBE7D7D3DA01E131
:10320000B4D2ADD2C6DA110EEECFDBFF120EEDCF87
:10321000DBFF110EDBCFE6FF120EDBCFE6FFDAECB1
:1032200023F0E552E552130EF3CFDBFF140EF4CF7B
:10323000DBFF060EDB5004E0130ED0DB01E20EDBF9
:1032400012EC1DF002E2130EDBDAAFDB05E0040E38
:10325000C5DB02E2050ED4DA030EDBB005D0A2DA3C
:1032600001E07DD2080EDB6A090EDB6A110EDBCFAE
:10327000E9FF120EDBCFEAFFEFCFDFFFDF5014E0F4
:10328000D7DB12E2E4DB03E1011C01E168D267DB7A
:1032900001E3DB2A090EDB2A110EDB2ADBCFE9FF73
:1032A000120EE8E3DB2AE6D77DDA01E15ED257D2DF
:1032B000030EDB8E070EDB0410E195DB040E5ADBF8
:1032C0000A0EEECFDBFF0B0EEECFDBFF0C0EEECFC8
:1032D000DBFF0D0EEECFDBFF6CD0070EDB500308DB
:1032E0002CE1030EDBAE0DD0B2DA020E76DAEFCFB0
:1032F00000F0016A026A036A00AE39D00168026810
:1033000035D0F70EDBCF01F0F80EDBCF02F0020E66
:10331000015E000E025AF70E01C0DBFFF80E02C07C
:10332000DBFF01C0E9FF02C0EAFFEFCF00F00A0EA9
:1033300000C0DBFF0B0EDB6A38D0070EDB50020843
:1033400009E1030EDBAE04D059DB02AE10D00ED083
:1033500055DB0DD0030EDBAE12D079DA020E3DDA6A
:10336000F9DA026A036A01AE02D002680368E2DA9F
:103370000C0E02C0DBFF0D0E03C0DBFF1AD0F70EF0
:10338000DBCF02F0F80EDBCF03F0020E025E000E80
:10339000035AF70E02C0DBFFF80E03C0DBFF02C0CA
:1033A000E9FF03C0EAFFD6DAC5DA0C0EDB6A0D0EC0
:1033B000DB6A060EDB5005E1010EF36E050EF3CF5E
:1033C000DBFF150EDB6A160EDB6AD950370F006E75
:1033D000000EDA20016E390E00C0DBFF3A0E01C08C
:1033E000DBFF380EDB6A080EDB6A0A0EAEDADF504E
:1033F000780A12E0200A10E0280A0CE0200A0AE00D
:103400003F0A06E00D0A02E0200A08E1020E05D09C
:10341000080E03D0080EDF26100E97DA030EDBBE6F
:1034200002D0DB92DB94DB50800B24E08ADAD89068
:10343000030EEB50000A08E6000EEE5C000EEE589C
:10344000000EEE58000EEE5815E213DA30683168BF
:10345000326833686EEC23F00A0E27C0DBFF0B0ED8
:1034600028C0DBFF0C0E29C0DBFF0D0E2AC0DBFFDE
:103470002D0E08D0030EDBA202D02B0E03D0DBA44E
:1034800008D0200EF36E170EF3CFDBFF150EDB2AEC
:1034900002D0170EDB6A050EDB5003E1B7D901E15C
:1034A00089D0440E006E4C0E016E000E026E070EA7
:1034B000DBCF03F0046A056A066A03C030F004C07B
:1034C00031F005C032F006C033F0D3D994EC24F0CB
:1034D00000502724F36E01502820F46E025029205A
:1034E000F86EF4CFF7FFF3CFF6FF0800090EF5CF23
:1034F000DBFF580EDF5C0FE1610EF36E090E7BD926
:103500000AE3200E006E090EDBCFE7FF0050E75EF6
:10351000090EE7CFDBFF070EDBCF00F0016A026A7E
:10352000036A0FDA00C030F001C031F002C032F09F
:1035300003C033F0EECF2BF0EECF2CF0EECF2DF01A
:10354000EFCF2EF094EC24F02EC0EDFF2DC0EDFF58
:103550002CC0EDFF2BC0EFFF390EDBCFE9FFDB0600
:103560003A0EDBCFEAFF01E2DB06090EDBCFEFFF0D
:10357000150EDB2A4BD995E1030EDBA61DD06F0E8D
:10358000DF5C06E1C1D918E3150EDB285BDA14D045
:10359000780EDF5C09E0580EDF5C06E0620EDF5C4F
:1035A00003E0420EDF5C08E1020EF36E160EF3CF6D
:1035B000DBFF02D0150EDB6A030EDB50100B0EE0B2
:1035C000040EDBCF00F0050EDB50D880005406E27D
:1035D000060EDB5003E1040EDB5034DA95D90AE223
:1035E000050EDBCFE7FF150EDB50E75E050EE7CFDC
:1035F000DBFF02D0050EDB6A040EDBCF00F0160EF7
:1036000045D9D880005414E2160EDBCFE6FF150E24
:10361000DBCFE6FF040EDBCFE6FF050EDB50E55205
:10362000E75CE552D880E754E552D880E7545FD98B
:10363000030EDB50010B0BE1080EDB5008E0B2D8A3
:1036400001E08DD0080EDB50BED8080EDB6A170EE5
:10365000DB5007E088D9170EF1D903E1011C01E125
:103660007ED0160EDB5016E07ED9300EE66E9FD867
:1036700002E1011C74E077D9DFCFE6FFEFEC22F026
:10368000E552E552E552F4CF01F00001F31C02E1EE
:10369000011C65E0050EDBCF00F0160EDB50D88074
:1036A000005409E2050EDBCFE7FF160EDB50E75EA4
:1036B000050EE7CFDBFF300EE66E050ECBD94FE1EE
:1036C000390EDB2ADBCFE9FF3A0E01E3DB2ADBCF41
:1036D000EAFF090EEFCFDBFFDB500EE044D9090E05
:1036E000ADD902E1011C3BE0390EDB2ADBCFE9FF5B
:1036F0003A0EEDE3DB2AEBD755D831E1160EDBCFDE
:10370000E6FF080EC3D8E552E7245DD82ED0070E99
:10371000DB50030A1CE0010A14E0030A07E07BD92E
:10372000DBCFEEFF020EDBCFEDFF1FD0F5D8056A31
:1037300003AE02D0046805682CD8BCD805C0EEFFE3
:1037400014D0EAD803BE046824D8B4D80ED063D904
:10375000DBCFEFFF0AD07BD905E1011C03E1F36861
:10376000F46810D0FCD801E3DB2A79D954EF17F0C4
:10377000010EDBCF00F0020EDBCF01F000C0F3FF43
:1037800001C0F4FF3B0EE15C02E2E16AE552E16E4A
:10379000CBD029D9020EBAEF1CF061D90800F55040
:1037A000DF6E1200200EE66E080E2AEF1DF0EFEC21
:1037B00022F0E552E552E552F3CF00F0F4CF01F0EC
:1037C0000001F31C1200006E016AD950010F4DD99F
:1037D0000050EE260150ED221200045E000E055A44
:1037E000F70E04C0DBFFF80E05C0DBFF04C0E9FFE5
:1037F00005C0EAFF1200DBCFF4FFF350F45C1200C7
:10380000DB50E76E040EE7CFDBFF12000A0EDBCFC2
:1038100000F00B0EDBCF01F00C0EDBCF02F00D0E33
:10382000DBCF03F000500110021003101200130E42
:10383000EECFDBFF140EEDCFDBFF130EDBCF00F07E
:10384000140EDBCF01F00001800E01141200F70E00
:10385000DBCF04F0F80EDBCF05F01200050EDB50D5
:10386000E66ED950130F01D9E552E750EE6EED6ABE
:1038700012000A0EDBCF2BF00B0EDBCF2CF00C0E60
:10388000DBCF2DF00D0EDBCF2EF01200DBCFE6FFED
:10389000150EDBCFE6FF050EDB50E552E724E552BF
:1038A000E7241200DB50CED8010EF36E060EF3CFE4
:1038B000DBFF1200EE50EFCFEAFFE96E02C0EEFF31
:1038C00003C0EEFF04C0EEFF1200D9CFE6FFDACF4F
:1038D000E6FFE1CFD9FFE2CFDAFF1200DFCFE6FF4C
:1038E000E66ADBEC25F0E552E552F3501200E76E94
:1038F000080EE7CFDBFF1200EECF00F0EECF01F0B5
:10390000EFCF02F0036A1200050EDBCF00F0150EB8
:10391000DB50D88000541200010EDBCF02F0020E03
:10392000DBCF03F0046A1200E552E5CFDAFFE7CF00
:10393000D9FF12000A0E00C0DBFF0B0E01C0DBFF37
:103940001200D9500A0F35EF1DF0F36E070EF3CFBA
:10395000DBFF1200EECF00F0EFCF01F01200010EFE
:10396000DB2A020E1200FC0EDBCFE6FFFD0EDBCFE2
:10397000E6FF1200005E000E015AF70E00C0DBFFEA
:10398000F80E01C0DBFF00C0E9FF01C0EAFF120032
:10399000DA20EA6EEF2AEECFF6FF000EEF22EECF2E
:1039A000F7FFEF22EECFF8FF1200040EDBCFE6FFA9
:1039B000130EDB50E552E75C9ADFDB5004DF060EA6
:1039C000DB501200090EDB500A0DF350DF24D00F3C
:1039D000E76E090EE7CFDBFFCDEF1BF0DB50F36E98
:1039E000050EFBEF1BF0F70EDBCF00F0F80EDBCF80
:1039F00001F01200DFCFE6FFD7EF1BF028DF030E48
:103A0000ECDE7CEF1CF029EC17F0E552E552E552B4
:103A1000E55200091200BDDEEE50EFCFEAFFE96E7D
:103A2000010E1200130EDB50F36E040EFBEF1BF0C1
:103A3000040EDB50F36E090EFBEF1BF0DBCFE6FF4D
:103A4000D7EF1BF0E76E050EE7CFDBFF12008BDF31
:103A5000FAEF1CF0DBCFE6FF86DF03EF1DF0D95055
:103A6000F90FE96EFF0EC8EF1CF0E96E000EDA20C8
:043A7000EA6E1200E8
:0C3A7400269E08D0269E2EAE05D02D6C9C
:103A80002E1EE86A2E22268E2EC028F02DC027F08A
:103A9000386A376A8E0E296E2A6A44EF1FF0266A4A
:103AA00080EC1FF098EC1FF026B628EF1FF026A23E
:103AB00005D026BA28EF1FF02FEF1FF026BA3BEFF4
:103AC0001FF026A005D026B828EF1FF03BEF1FF00F
:103AD00026B82FEF1FF02A6A7F0E2F24296EE86A7E
:103AE0002A223450295EE86A2A5A1A0E356E2F6A45
:103AF000376A386A276A286A31502C5E32502D5A4C
:103B000033502E5A000E2F5A09E731502C263250CE
:103B10002D2233502E22000E2F2201D0378AD8902A
:103B20002C362D362E362F36D89037363836273667
:103B30002836352EE1D72E502D102C10D8A4378AD8
:103B400044EF1FF0266A80EC1FF098EC1FF026B6B9
:103B500028EF1FF026A205D026B828EF1FF02FEF80
:103B60001FF026AA05D026B028EF1FF02FEF1FF078
:103B700026B002D026A802D03BEF1FF02A6A3450AC
:103B80002F24296EE86A2A227E0E295EE86A2A5AC4
:103B9000376A386A276A286A33502E02F4CF28F031
:103BA000F3CF27F032502E02F3503826F45027225C
:103BB000000E282233502D02F3503826F4502722CD
:103BC000000E282231502E02F3503726F4503822AE
:103BD000000E2722282232502D02F3503726F450AF
:103BE0003822000E2722282233502C02F350372689
:103BF000F4503822000E2722282231502D02F45092
:103C00003726000E38222722282232502C02F45068
:103C10003726000E38222722282244EF1FF0347E58
:103C2000266A80EC1FF098EC1FF026B628EF1FF0F4
:103C300026A20AD026AA03D026BE28EF1FF026A46B
:103C400034EF1FF031EF1FF026AA05D026AC34EF79
:103C50001FF031EF1FF026A00AD026A808D026BEFC
:103C600004D026A402D03DEF1FF041EF1FF0376AC9
:103C70002A6A34502F5C366E10E32CC038F02DC009
:103C800027F02EC028F02FC035F031C02CF032C004
:103C90002DF033C02EF0263A09D031C038F032C0B2
:103CA00027F033C028F034C035F0366C269E26BC91
:103CB000268E35C029F026B070EF1FF01A0E366040
:103CC00070EF1FF0296A2F6A26A408D02C6C2D1ED5
:103CD0002E1E2F1EE86A2D222E222F2226AC08D05F
:103CE000386C271E281E291EE86A2722282229222E
:103CF0002B6A365207E02F342E322D322C322B32E3
:103D0000362EF9D72C5038262D5027222E50282217
:103D10002F5029222BC037F0269E29AE0BD0376CAE
:103D2000381E271E281E291EE86A3822272228222C
:103D30002922268E29A006D0D88028322732383270
:103D40003732352A35C029F044EF1FF0256A33AEEB
:103D5000AFEF1EF0326C331EE86A3322251E2EAE02
:103D6000B7EF1EF02D6C2E1EE86A2E22251EC5EC24
:103D700025F02EBEC7EF1EF025AE000C2D6C2E1EBA
:103D8000E86A2E22296C2A1EE86A2A22000C25BE27
:103D9000BEEF1EF02688FF0C2EC038F02DC037F085
:103DA0002D503202F4CF2CF0F3CF2BF02E503302F3
:103DB000F4CF2EF0F3CF2DF03202F3502C26F45036
:103DC0002D22E86A2E2237503302F3502C26F4506D
:103DD0002D22E86A2E2233AEF2EF1EF037502D5E10
:103DE00038502E5A38AE000C32502D5E33502E5AB9
:103DF000000C266A80EC1FF026B603EF1FF026A207
:103E00000ED026B405D07F0E2E6EFF0E2D6E1FD065
:103E1000800E2E6E2D6A1BD02E6A2D6A18D026B009
:103E2000FBD78F0E2F60EDD77E0E2F64F5D78E0E49
:103E30002F5C05E0D8902E322D322F2AF8D726A4F9
:103E400006D02D6C2E1EE86A2E222EAEE5D712006B
:103E50007F0E2F6EFF0E2E6E2D6E2C6E12007F0EBB
:103E600026BEFF0E2F6E02D07F0E2F6E800E2E6E9E
:103E70002D6A2C6AF3D726AE04D0800E2F6E2E6AE0
:103E8000F7D72F6A2E6AF4D728502710381037102A
:103E9000F8E02ABEF0D728BE0CD029502A10EBE05B
:103EA000D89037363836273628362906D8A02A063D
:103EB000F2D72A50D4E12928D2E037AE11D07F0EB4
:103EC000371402E138A00CD0382AE86A27222822C9
:103ED00007E3D880283227323832292A2928BFE040
:103EE0002950C9E038C02CF027C02DF028342E6EA0
:103EF00029302F6E2E322F9E26BE2F8E2EEF1FF0D2
:103F00002E362F3602E32684267E06E126802F6A8F
:103F10002E6A2D6A2C6A12002F2803E0D8802E32D8
:103F20001200D8902E3202E126821200268612005C
:103F30003336343602E3268C267E06E12688346A40
:103F4000336A326A316A1200342803E0D88033328F
:0C3F50001200D8903332EAE1268A1200F9
:043F5C002020002001
:103F60001600EA201D160C00F4EAE3201F1D1A16A5
:103F7000110C0600FAF4EFEAE6E3E1201F1F1E1D14
:103F80001C1A181614110F0C09060300FDFAF7F499
:103F9000F1EFECEAE8E6E4E3E2E1E1201F1F1F1F96
:103FA0001F1E1E1D1C1C1B1A191817161514131181
:103FB000100F0D0C0A09070604030100FFFDFCFAAF
:103FC000F9F7F6F4F3F1F0EFEDECEBEAE9E8E7E608
:103FD000E5E4E4E3E2E2E1E1E1E1E1201F1F1F1F8C
:103FE0001F1F1F1F1F1F1E1E1E1E1D1D1D1C1C1CF4
:103FF0001B1B1B1A1A191918181717161615141443
:104000001313121111100F0F0E0D0C0C0B0A0A09CD
:1040100008070706050403030201000000FFFEFD78
:10402000FDFCFBFAF9F9F8F7F6F6F5F4F4F3F2F122
:10403000F1F0EFEFEEEDEDECECEBEAEAE9E9E8E8C0
:10404000E7E7E6E6E5E5E5E4E4E4E3E3E3E2E2E22C
:10405000E2E1E1E1E1E1E1E1E1E1E1000000E000D4
:10406000EAE1EA00F4EAE3E1E3EAF400FAF4EFEA71
:10407000E6E3E1E1E1E3E6EAEFF4FA00FDFAF7F462
:10408000F1EFECEAE8E6E4E3E2E1E1E1E1E1E2E3D9
:10409000E4E6E8EAECEFF1F4F7FAFD00FFFDFCFAE4
:1040A000F9F7F6F4F3F1F0EFEDECEBEAE9E8E7E627
:1040B000E5E4E4E3E2E2E1E1E1E1E1E1E1E1E1E1E2
:1040C000E1E2E2E3E4E4E5E6E7E8E9EAEBECEDEF80
:1040D000F0F1F3F4F6F7F9FAFCFDFF0000FFFEFD46
:1040E000FDFCFBFAF9F9F8F7F6F6F5F4F4F3F2F162
:1040F000F1F0EFEFEEEDEDECECEBEAEAE9E9E8E800
:10410000E7E7E6E6E5E5E5E4E4E4E3E3E3E2E2E26B
:10411000E2E1E1E1E1E1E1E1E1E1E1E1E1E1E1E18E
:10412000E1E1E1E1E1E1E2E2E2E2E3E3E3E4E4E46C
:10413000E5E5E5E6E6E7E7E8E8E9E9EAEAEBECECFD
:10414000EDEDEEEFEFF0F1F1F2F3F4F4F5F6F6F752
:10415000F8F9F9FAFBFCFDFDFEFF0000000000008D
:10416000000000000000000000000000000000004F
:10417000000000000000000000000000010101013B
:104180000101010101010101010102020202020219
:1041900002020202030303030303030304040404EF
:1041A00004040404050505050505050606060606BE
:1041B0000607070707070708080808080909090983
:1041C00009090A0A0A0A0A0B0B0B0B0C0C0C0C0C43
:1041D0000D0D0D0D0E0E0E0E0F0F0F0F10101010F7
:1041E00011111111121212121313131314141415A6
:1041F000151515161616171717181818191919194D
:104200001A1A1A1B1B1B1C1C1C1D1D1D1E1E1E1FEB
:104210001F1F202021212122222223232424242580
:104220002525262627272728282929292A2A2B2B0E
:104230002B2C2C2D2D2D2E2E2F2F30303131313295
:104240003233333434353535363637373838393913
:104250003A3A3B3B3C3C3D3D3E3E3F3F4040414186
:1042600042424343444445454646474748484949F6
:104270004A4A4B4C4C4D4D4E4E4F4F50515152525D
:104280005353545455565657575859595A5A5B5CBC
:104290005C5D5D5E5F5F6060616262636464656512
:1042A0006667676869696A6A6B6C6C6D6E6E6F7061
:1042B00070717272737474757676777879797A7BA7
:1042C0007B7C7D7D7E7F7F808182828384848586E6
:1042D000878788898A8A8B8C8D8D8E8F909091921A
:1042E000939394959696979899999A9B9C9D9D9E49
:1042F0009FA0A0A1A2A3A4A4A5A6A7A8A9A9AAAB70
:10430000ACADADAEAFB0B1B2B2B3B4B5B6B7B7B88D
:10431000B9BABBBCBDBDBEBFC0C1C2C3C4C4C5C6A3
:10432000C7C8C9CACBCBCCCDCECFD0D1D2D3D4D4B1
:10433000D5D6D7D8D9DADBDCDDDEDFE0E1E1E2E3B8
:10434000E4E5E6E7E8E9EAEBECEDEEEFF0F1F2F3B5
:0C435000F4F5F6F7F8F9FAFBFCFDFEFFAF
:04435C0025780A0DA9
:10436000000A0D0025642E25640025640A0D002531
:104370002E3575004C4F4E4720494E5445525641FC
:104380004C2020200053484F525420494E5445524F
:1043900056414C20200053484F525420504552491A
:1043A0004F4420202020004C4F4E4720504552497A
:1043B0004F442020202020004849474820465245AD
:1043C0005120202020202020004C4F5720465245CD
:1043D000512020202020202020000A0D535045434A
:1043E0005452554D0A0D000A0D53484F525420495E
:1043F0004E54455256414C0A0D000A0D4C4F4E4743
:1044000020494E54455256414C0A0D000A0D534D59
:10441000414C4C20504552494F440A0D000A0D4C66
:104420004152474520504552494F440A0D000A0D5C
:104430004552524F523A204E4F20434D440A0D00F0
:104440000A0D4849474820465245510A0D000A0DB9
:104450004C4F5720465245510A0D0025640020203C
:104460002020202020202020202020202020005339
:104470005045435452554D2020202020202020001C
:104480000A0D554152542049532052454144592167
:034490000A0D0012
:0C449400D9CFE6FFDACFE6FFE1CFD9FF79
:1044A000E2CFDAFFE652E652E652E652D950F90F71
:1044B000006EFF0EDA20016E020E00C0DBFF030E5D
:1044C00001C0DBFF020EDBCFE6FF030EDBCFE6FF12
:1044D000F90EDBCFE6FFFA0EDBCFE6FFFB0EDBCFFC
:1044E000E6FFD950FC0FE66EFF0EDA20E66E3FECD9
:1044F00017F0006E070EE15C02E2E16AE552E16E40
:104500000050F3CFDEFFF4CFDDFFFC0EDBCFE9FF81
:10451000FD0EDBCFEAFFEF6ADECF00F0DDCF01F06A
:1045200000C0F3FF01C0F4FF040EE15C02E2E16AA7
:10453000E552E16EE552E5CFDAFFE7CFD9FF120091
:104540001A0EF66E000EF76E000EF86E00010900EE
:10455000F550A36F0900F550A46F03E1A36701D0E4
:104560003DD00900F5509E6F0900F5509F6F09007E
:10457000F550A06F09000900F550E96E0900F550EB
:10458000EA6E090009000900F550A16F0900F55015
:10459000A26F09000900F6CFA5F0F7CFA6F0F8CF7B
:1045A000A7F09EC0F6FF9FC0F7FFA0C0F8FF000174
:1045B000A15302E1A25307E00900F550EE6EA107F6
:1045C000F8E2A207F9D7A5C0F6FFA6C0F7FFA7C07B
:0E45D000F8FF0001A307000EA45BBFD7120086
:0245DE00D9CF33
:1045E000E6FFDACFE6FFE1CFD9FFE2CFDAFFFB0E3D
:1045F000DBCF00F0FC0EDBCF01F00001800E0114D8
:104600001AE1FB0EDBCFE9FFFC0EDBCFEAFFEECFBA
:10461000F3FFEDCFF4FFEE2A000EEF22F3CFE9FF18
:10462000F4CFEAFFFD0EDBCFEFFFEF50016AF36E30
:1046300001C0F4FF10D0FB0EDB50FE0806E1FD0EBA
:10464000DBCFE6FF0BEC26F005D0FD0EDBCFE6FF5F
:1046500003EC00F0E552E552E5CFDAFFE7CFD9FFF2
:02466000120046
:0E466200D9CFE6FFDACFE6FFE1CFD9FFE2CFF6
:10467000DAFFAC6AAB6AFD0EDBB0AC88DBA202D01D
:10468000AC8CAB8CDBB4AC8EDBA602D0AB8801D09B
:10469000AB8ADBA802D0AC8401D0AC949E98DBAC92
:1046A00002D09D8A01D09D9A9E9ADBAE02D09D8851
:1046B00001D09D98FB0EDB50AF6EAC8AAB8E949C04
:1046C000948EAC50100B04E0AC50800B01E1948C44
:0C46D000E552E5CFDAFFE7CFD9FF12007A
:0446DC002B5030022D
:1046E000F3CF27F0F4CF28F03102F3502826000E44
:1046F000F420296E2B503202F3502926000EF420AC
:104700002A6E2B503302F3502A262C503002F350DD
:104710002826F4502922000E2A222C503102F35070
:104720002926F4502A222C503202F3502A262D50EA
:104730003002F3502926F4502A222D503102F35032
:0C4740002A262E503002F3502A261200C8
:04474C00D9CFE6FFDC
:10475000DACFE6FFE1CFD9FFE2CFDAFF3F0EC7168F
:10476000C66AFD0EDB50C612FB0EDB50C712FC0EF4
:10477000DB50030A09E0010A04E0020A06E1C78CE3
:1047800004D0C78CC68801D0C688FD0EDB50050A50
:1047900005E0010A05E19486928A03D0948601D04F
:1047A00094969488949AC68AE552E5CFDAFFE7CFCB
:0447B000D9FF12001B
:0C47B400FE0EE3CFE9FFFF0EE3CFEAFFAB
:1047C000F36AF46AEE5203E0F34AF42AFBD71200CC
:1047D000FF0EE3CFF8FFE552FF0EE3CFF7FFE55200
:1047E000FF0EE3CFF6FFE552E66AE66AE66A0900E5
:1047F000F55209E0FD0EE32A05E1FE0EE32A02E18F
:10480000FF0EE32AF4D7FD0EE3CF2CF0FE0EE3CF2C
:0A4810002DF0FF0EE3CF2EF0120092
:06481A00D9CFE6FFDACF62
:10482000E6FFE1CFD9FFE2CFDAFFACA2FED7FB0E65
:10483000DBCFF6FFFC0EDBCFF7FFFD0EDBCFF8FF83
:104840000800F550E66EAEEC25F0E552D950FB0FAE
:10485000E96EFF0EDA20EA6EEFCFF6FFEE2AEFCF19
:10486000F7FF000EEE22EFCFF8FFEE220800F55022
:0E487000DCE1E552E5CFDAFFE7CFD9FF120019
:02487E00D9CF90
:10488000E6FFDACFE6FFE1CFD9FFE2CFDAFFE6526B
:10489000E652DF6AFB0EDB50DF5C18E29EAAFED711
:1048A000FDEC24F0E76E010EE7CFDBFFFC0EDBCF63
:1048B000E9FFFD0EDBCFEAFF010EDBCFEFFFFC0EC1
:1048C000DB2AFD0E01E3DB2ADF2AE4D7E552E552BD
:0C48D000E552E5CFDAFFE7CFD9FF120078
:0448DC00D9CFE6FF4B
:1048E000DACFE6FFE1CFD9FFE2CFDAFFACA2FED705
:1048F000FC0EDBCFE9FFFD0EDBCFEAFFEF50E66EEB
:10490000AEEC25F0E552FC0EDBCFE9FFDB2AFD0E15
:10491000DBCFEAFF01E3DB2AEF50E8E1E552E5CF28
:08492000DAFFE7CFD9FF120016
:084928002A6A296A286A276A3D
:10493000200EE76ED8902B362C362D362E362736A5
:10494000283629362A363050275C315028583250C4
:10495000295833502A5809E33050275E3150285ADD
:104960003250295A33502A5A2B2AE72EE4D7120004
:10497000D9CFE6FFDACFE6FFE1CFD9FFE2CFDAFF0A
:10498000C26AFD0EDB50C16EFC0EDB50380B006EB0
:10499000FD0EDB50040DF350C00B0010C26EFC0E78
:1049A000DBAE03D09E9C9D8CF28CC280E552E5CF9D
:0849B000DAFFE7CFD9FF120086
:0849B800D9CFE6FFDACFE6FFDC
:1049C000E1CFD9FFE2CFDAFFFD0EDB50360BB16E3F
:1049D000B36AB26AA192FD0EDBAE02D0A08201D012
:1049E000A092DBA002D0B18E01D0B19EB180E55281
:0A49F000E5CFDAFFE7CFD9FF120090
:0649FA00D9CFE6FFDACF81
:104A0000E6FFE1CFD9FFE2CFDAFFE652F20E000176
:104A1000B017ABAC03D0B091ABB0B081ABB4B08544
:104A2000ABB2B087AE50DF6EDF50E552E552E5CF56
:084A3000DAFFE7CFD9FF120005
:084A3800D9CFE6FFDACFE6FF5B
:104A4000E1CFD9FFE2CFDAFFE652E652B250DF6E95
:104A5000010EB3CFDBFFDECF00F0DDCF01F000C0F1
:104A6000F3FF01C0F4FFE552E552E552E5CFDAFF6E
:064A7000E7CFD9FF1200A0
:0A4A7600D9CFE6FFDACFE6FFE1CF6B
:104A8000D9FFE2CFDAFFE652E652D650DF6E010ED2
:104A9000D7CFDBFFDECF00F0DDCF01F000C0F3FFAA
:104AA00001C0F4FFE552E552E552E5CFDAFFE7CF6A
:044AB000D9FF120018
:0C4AB400D9CFE6FFDACFE6FFE1CFD9FF53
:104AC000E2CFDAFFE652E652FC0EDBCFDEFFDBCFB1
:104AD000DDFF010EDB50B36EDF50B26EE552E552E2
:0C4AE000E552E5CFDAFFE7CFD9FF120066
:044AEC00D9CFE6FF39
:104AF000DACFE6FFE1CFD9FFE2CFDAFFE652E652A6
:104B0000FC0EDBCFDEFFDBCFDDFF010EDB50D76E0F
:104B1000DF50D66EE552E552E552E5CFDAFFE7CF3A
:044B2000D9FF1200A7
:0C4B2400D9CFE6FFDACFE6FFE1CFD9FFE2
:104B3000E2CFDAFFFD0EDB507F0BD56ED76AD66A67
:104B4000F294FD0EDBAE02D0F28A01D0F29AD58E3D
:0C4B5000E552E5CFDAFFE7CFD9FF1200F5
:044B5C00D9CFE6FFC8
:104B6000DACFE6FFE1CFD9FFE2CFDAFFACAC04D079
:104B7000AC900001B0B3AC80FD0EDB50AD6EE552E1
:0A4B8000E5CFDAFFE7CFD9FF1200FE
:064B8A002A6A296A100EE0
:104B9000E76ED8902D362E3629362A363250295CCB
:104BA00033502A5805E33250295E33502A5A2D2AB1
:064BB000E72EF0D7120011
:0A4BB600F36AF46AFF0EE124E96ED1
:104BC000FF0EE220EA6EED6607D02F0EEF6404D0F0
:0A4BD0003A0EEF6001D0F32A120044
:064BDA00000EF36E00EE78
:104BE00000F0060E01D81200EA6002D0EE6AFCD78F
:0A4BF000F350E9601200EE6AFCD7F2
:064BFA0015EE00F025EEAF
:104C000000F0F86A269CA0EC22F02DEC26F014ECC3
:064C100000F0FBD71200CA
:0A4C1600FF0EE350ACBA04D0AF6A01
:104C2000AB8EAC8A949CACA2FED7AD6EF36EF46AE8
:024C3000120070
:0E4C3200C450036E026AC3500210F36E03C03A
:044C4000F4FF12006B
:0C4C440030313233343536373839616294
:054C50006364656600CD
:044C5600C284120002
:024C5A00120046
:044C5C000000000054
:044C60000000000050
:020000040030CA
:0100010025D9
:010003000EEE
:010006008178
:00000001FF
